{
  "_format": "hh-sol-artifact-1",
  "contractName": "Marketplace",
  "sourceName": "contracts/Marketplace.sol",
  "abi": [
    {
      "inputs": [],
      "stateMutability": "nonpayable",
      "type": "constructor"
    },
    {
      "anonymous": false,
      "inputs": [
        {
          "indexed": true,
          "internalType": "uint256",
          "name": "marketItemId",
          "type": "uint256"
        },
        {
          "indexed": true,
          "internalType": "address",
          "name": "nftContract",
          "type": "address"
        },
        {
          "indexed": true,
          "internalType": "uint256",
          "name": "tokenId",
          "type": "uint256"
        },
        {
          "indexed": false,
          "internalType": "address",
          "name": "creator",
          "type": "address"
        },
        {
          "indexed": false,
          "internalType": "address",
          "name": "seller",
          "type": "address"
        },
        {
          "indexed": false,
          "internalType": "address",
          "name": "owner",
          "type": "address"
        },
        {
          "indexed": false,
          "internalType": "uint256",
          "name": "price",
          "type": "uint256"
        },
        {
          "indexed": false,
          "internalType": "uint256",
          "name": "warrantyYear",
          "type": "uint256"
        },
        {
          "indexed": false,
          "internalType": "uint256",
          "name": "warrantySerial",
          "type": "uint256"
        },
        {
          "indexed": false,
          "internalType": "bool",
          "name": "sold",
          "type": "bool"
        },
        {
          "indexed": false,
          "internalType": "bool",
          "name": "canceled",
          "type": "bool"
        }
      ],
      "name": "MarketItemCreated",
      "type": "event"
    },
    {
      "inputs": [
        {
          "internalType": "address",
          "name": "nftContractAddress",
          "type": "address"
        },
        {
          "internalType": "uint256",
          "name": "marketItemId",
          "type": "uint256"
        }
      ],
      "name": "cancelMarketItem",
      "outputs": [],
      "stateMutability": "payable",
      "type": "function"
    },
    {
      "inputs": [
        {
          "internalType": "address",
          "name": "nftContractAddress",
          "type": "address"
        },
        {
          "internalType": "uint256",
          "name": "tokenId",
          "type": "uint256"
        },
        {
          "internalType": "uint256",
          "name": "warrantyYear",
          "type": "uint256"
        },
        {
          "internalType": "uint256",
          "name": "warrantySerial",
          "type": "uint256"
        },
        {
          "internalType": "uint256",
          "name": "price",
          "type": "uint256"
        }
      ],
      "name": "createMarketItem",
      "outputs": [
        {
          "internalType": "uint256",
          "name": "",
          "type": "uint256"
        }
      ],
      "stateMutability": "payable",
      "type": "function"
    },
    {
      "inputs": [
        {
          "internalType": "address",
          "name": "nftContractAddress",
          "type": "address"
        },
        {
          "internalType": "uint256",
          "name": "marketItemId",
          "type": "uint256"
        }
      ],
      "name": "createMarketSale",
      "outputs": [],
      "stateMutability": "payable",
      "type": "function"
    },
    {
      "inputs": [],
      "name": "fetchAvailableMarketItems",
      "outputs": [
        {
          "components": [
            {
              "internalType": "uint256",
              "name": "marketItemId",
              "type": "uint256"
            },
            {
              "internalType": "address",
              "name": "nftContractAddress",
              "type": "address"
            },
            {
              "internalType": "uint256",
              "name": "tokenId",
              "type": "uint256"
            },
            {
              "internalType": "address payable",
              "name": "creator",
              "type": "address"
            },
            {
              "internalType": "address payable",
              "name": "seller",
              "type": "address"
            },
            {
              "internalType": "address payable",
              "name": "owner",
              "type": "address"
            },
            {
              "internalType": "uint256",
              "name": "price",
              "type": "uint256"
            },
            {
              "internalType": "uint256",
              "name": "warrantyYear",
              "type": "uint256"
            },
            {
              "internalType": "uint256",
              "name": "warrantySerial",
              "type": "uint256"
            },
            {
              "internalType": "bool",
              "name": "sold",
              "type": "bool"
            },
            {
              "internalType": "bool",
              "name": "canceled",
              "type": "bool"
            }
          ],
          "internalType": "struct Marketplace.MarketItem[]",
          "name": "",
          "type": "tuple[]"
        }
      ],
      "stateMutability": "view",
      "type": "function"
    },
    {
      "inputs": [
        {
          "internalType": "string",
          "name": "_addressProperty",
          "type": "string"
        }
      ],
      "name": "fetchMarketItemsByAddressProperty",
      "outputs": [
        {
          "components": [
            {
              "internalType": "uint256",
              "name": "marketItemId",
              "type": "uint256"
            },
            {
              "internalType": "address",
              "name": "nftContractAddress",
              "type": "address"
            },
            {
              "internalType": "uint256",
              "name": "tokenId",
              "type": "uint256"
            },
            {
              "internalType": "address payable",
              "name": "creator",
              "type": "address"
            },
            {
              "internalType": "address payable",
              "name": "seller",
              "type": "address"
            },
            {
              "internalType": "address payable",
              "name": "owner",
              "type": "address"
            },
            {
              "internalType": "uint256",
              "name": "price",
              "type": "uint256"
            },
            {
              "internalType": "uint256",
              "name": "warrantyYear",
              "type": "uint256"
            },
            {
              "internalType": "uint256",
              "name": "warrantySerial",
              "type": "uint256"
            },
            {
              "internalType": "bool",
              "name": "sold",
              "type": "bool"
            },
            {
              "internalType": "bool",
              "name": "canceled",
              "type": "bool"
            }
          ],
          "internalType": "struct Marketplace.MarketItem[]",
          "name": "",
          "type": "tuple[]"
        }
      ],
      "stateMutability": "view",
      "type": "function"
    },
    {
      "inputs": [],
      "name": "fetchOwnedMarketItems",
      "outputs": [
        {
          "components": [
            {
              "internalType": "uint256",
              "name": "marketItemId",
              "type": "uint256"
            },
            {
              "internalType": "address",
              "name": "nftContractAddress",
              "type": "address"
            },
            {
              "internalType": "uint256",
              "name": "tokenId",
              "type": "uint256"
            },
            {
              "internalType": "address payable",
              "name": "creator",
              "type": "address"
            },
            {
              "internalType": "address payable",
              "name": "seller",
              "type": "address"
            },
            {
              "internalType": "address payable",
              "name": "owner",
              "type": "address"
            },
            {
              "internalType": "uint256",
              "name": "price",
              "type": "uint256"
            },
            {
              "internalType": "uint256",
              "name": "warrantyYear",
              "type": "uint256"
            },
            {
              "internalType": "uint256",
              "name": "warrantySerial",
              "type": "uint256"
            },
            {
              "internalType": "bool",
              "name": "sold",
              "type": "bool"
            },
            {
              "internalType": "bool",
              "name": "canceled",
              "type": "bool"
            }
          ],
          "internalType": "struct Marketplace.MarketItem[]",
          "name": "",
          "type": "tuple[]"
        }
      ],
      "stateMutability": "view",
      "type": "function"
    },
    {
      "inputs": [],
      "name": "fetchSellingMarketItems",
      "outputs": [
        {
          "components": [
            {
              "internalType": "uint256",
              "name": "marketItemId",
              "type": "uint256"
            },
            {
              "internalType": "address",
              "name": "nftContractAddress",
              "type": "address"
            },
            {
              "internalType": "uint256",
              "name": "tokenId",
              "type": "uint256"
            },
            {
              "internalType": "address payable",
              "name": "creator",
              "type": "address"
            },
            {
              "internalType": "address payable",
              "name": "seller",
              "type": "address"
            },
            {
              "internalType": "address payable",
              "name": "owner",
              "type": "address"
            },
            {
              "internalType": "uint256",
              "name": "price",
              "type": "uint256"
            },
            {
              "internalType": "uint256",
              "name": "warrantyYear",
              "type": "uint256"
            },
            {
              "internalType": "uint256",
              "name": "warrantySerial",
              "type": "uint256"
            },
            {
              "internalType": "bool",
              "name": "sold",
              "type": "bool"
            },
            {
              "internalType": "bool",
              "name": "canceled",
              "type": "bool"
            }
          ],
          "internalType": "struct Marketplace.MarketItem[]",
          "name": "",
          "type": "tuple[]"
        }
      ],
      "stateMutability": "view",
      "type": "function"
    },
    {
      "inputs": [
        {
          "internalType": "uint256",
          "name": "tokenId",
          "type": "uint256"
        }
      ],
      "name": "getLatestMarketItemByTokenId",
      "outputs": [
        {
          "components": [
            {
              "internalType": "uint256",
              "name": "marketItemId",
              "type": "uint256"
            },
            {
              "internalType": "address",
              "name": "nftContractAddress",
              "type": "address"
            },
            {
              "internalType": "uint256",
              "name": "tokenId",
              "type": "uint256"
            },
            {
              "internalType": "address payable",
              "name": "creator",
              "type": "address"
            },
            {
              "internalType": "address payable",
              "name": "seller",
              "type": "address"
            },
            {
              "internalType": "address payable",
              "name": "owner",
              "type": "address"
            },
            {
              "internalType": "uint256",
              "name": "price",
              "type": "uint256"
            },
            {
              "internalType": "uint256",
              "name": "warrantyYear",
              "type": "uint256"
            },
            {
              "internalType": "uint256",
              "name": "warrantySerial",
              "type": "uint256"
            },
            {
              "internalType": "bool",
              "name": "sold",
              "type": "bool"
            },
            {
              "internalType": "bool",
              "name": "canceled",
              "type": "bool"
            }
          ],
          "internalType": "struct Marketplace.MarketItem",
          "name": "",
          "type": "tuple"
        },
        {
          "internalType": "bool",
          "name": "",
          "type": "bool"
        }
      ],
      "stateMutability": "view",
      "type": "function"
    },
    {
      "inputs": [],
      "name": "getListingFee",
      "outputs": [
        {
          "internalType": "uint256",
          "name": "",
          "type": "uint256"
        }
      ],
      "stateMutability": "view",
      "type": "function"
    }
  ],
  "bytecode": "0x6080604052669fdf42f6e4800060055534801561001b57600080fd5b506001600055600480546001600160a01b031916331790556115e5806100426000396000f3fe6080604052600436106100865760003560e01c806392083b911161005957806392083b911461010e578063b3e3c42f1461012f578063b8fe6abe14610144578063c23b139e14610159578063cd90fdf41461016c57600080fd5b80630203c8231461008b5780630e01c969146100b65780634cf2a069146100cb5780636f9b4920146100e0575b600080fd5b34801561009757600080fd5b506100a061018c565b6040516100ad919061142c565b60405180910390f35b3480156100c257600080fd5b506100a06101b9565b3480156100d757600080fd5b506100a0610390565b3480156100ec57600080fd5b506101006100fb36600461131d565b6103b9565b6040516100ad9291906114eb565b61012161011c366004611230565b6104bf565b6040519081526020016100ad565b61014261013d366004611205565b610941565b005b34801561015057600080fd5b50600554610121565b610142610167366004611205565b610ad8565b34801561017857600080fd5b506100a0610187366004611273565b610cac565b60606101b46040518060400160405280600581526020016437bbb732b960d91b815250610cac565b905090565b606060006101c660015490565b905060006101d360025490565b905060006101e060035490565b90506000816101ef8486611522565b6101f99190611522565b905060008167ffffffffffffffff81111561022457634e487b7160e01b600052604160045260246000fd5b60405190808252806020026020018201604052801561025d57816020015b61024a61118d565b8152602001906001900390816102425790505b5090506000805b8681101561038457600060068161027c84600161150a565b815260208082019290925260409081016000208151610160810183528154815260018201546001600160a01b0390811694820194909452600282015492810192909252600381015483166060830152600481015483166080830152600581015490921660a08201819052600683015460c0830152600783015460e083015260088301546101008084019190915260099093015460ff808216151561012085015293900490921615156101408201529150156103375750610372565b8084848151811061035857634e487b7160e01b600052603260045260246000fd5b602090810291909101015261036e60018461150a565b9250505b8061037c81611550565b915050610264565b50909695505050505050565b60606101b46040518060400160405280600681526020016539b2b63632b960d11b815250610cac565b6103c161118d565b6000806103cd60015490565b9050805b80156104ab576000818152600660208181526040928390208351610160810185528154815260018201546001600160a01b03908116938201939093526002820154948101859052600382015483166060820152600482015483166080820152600582015490921660a08301529182015460c0820152600782015460e082015260088201546101008083019190915260099092015460ff8082161515610120840152929004909116151561014082015290861461048d5750610499565b95600195509350505050565b806104a381611539565b9150506103d1565b506104b461118d565b946000945092505050565b6000600260005414156104ed5760405162461bcd60e51b81526004016104e4906114b4565b60405180910390fd5b60026000558161053f5760405162461bcd60e51b815260206004820152601c60248201527f5072696365206d757374206265206174206c656173742031207765690000000060448201526064016104e4565b6000841161058f5760405162461bcd60e51b815260206004820152601a60248201527f57617272616e7479206d757374206265206f662031207965617200000000000060448201526064016104e4565b60055434146105ec5760405162461bcd60e51b8152602060048201526024808201527f5072696365206d75737420626520657175616c20746f206c697374696e6720706044820152637269636560e01b60648201526084016104e4565b6105fa600180546001019055565b600061060560015490565b60405163867d339760e01b8152600481018890529091506000906001600160a01b0389169063867d33979060240160206040518083038186803b15801561064b57600080fd5b505afa15801561065f573d6000803e3d6000fd5b505050506040513d601f19601f8201168201806040525081019061068391906111e9565b9050604051806101600160405280838152602001896001600160a01b03168152602001888152602001826001600160a01b03168152602001336001600160a01b0316815260200160006001600160a01b0316815260200185815260200187815260200186815260200160001515815260200160001515815250600660008481526020019081526020016000206000820151816000015560208201518160010160006101000a8154816001600160a01b0302191690836001600160a01b031602179055506040820151816002015560608201518160030160006101000a8154816001600160a01b0302191690836001600160a01b0316021790555060808201518160040160006101000a8154816001600160a01b0302191690836001600160a01b0316021790555060a08201518160050160006101000a8154816001600160a01b0302191690836001600160a01b0316021790555060c0820151816006015560e0820151816007015561010082015181600801556101208201518160090160006101000a81548160ff0219169083151502179055506101408201518160090160016101000a81548160ff021916908315150217905550905050876001600160a01b03166323b872dd33308a6040518463ffffffff1660e01b815260040161088a939291906001600160a01b039384168152919092166020820152604081019190915260600190565b600060405180830381600087803b1580156108a457600080fd5b505af11580156108b8573d6000803e3d6000fd5b5050604080516001600160a01b0385811682523360208301526000828401819052606083018a9052608083018c905260a083018b905260c0830181905260e083015291518b9450918c16925085917fa34ad7ad60b37771208242211197b13b01c90b66addd1b1310369487733fc121918190036101000190a45060016000559695505050505050565b600260005414156109645760405162461bcd60e51b81526004016104e4906114b4565b600260008181558281526006602052604090200154806109c65760405162461bcd60e51b815260206004820152601860248201527f4d61726b6574206974656d2068617320746f206578697374000000000000000060448201526064016104e4565b6000828152600660205260409020600401546001600160a01b03163314610a285760405162461bcd60e51b81526020600482015260166024820152752cb7ba9030b932903737ba103a34329039b2b63632b960511b60448201526064016104e4565b6040516323b872dd60e01b8152306004820152336024820152604481018290526001600160a01b038416906323b872dd90606401600060405180830381600087803b158015610a7657600080fd5b505af1158015610a8a573d6000803e3d6000fd5b50505060008381526006602052604090206005810180546001600160a01b03191633179055600901805461ff00191661010017905550610ace600380546001019055565b5050600160005550565b60026000541415610afb5760405162461bcd60e51b81526004016104e4906114b4565b6002600081815582815260066020819052604090912090810154910154348214610b835760405162461bcd60e51b815260206004820152603360248201527f506c65617365207375626d6974207468652061736b696e6720707269636520696044820152726e206f7264657220746f20636f6e74696e756560681b60648201526084016104e4565b6000838152600660205260408082206005810180546001600160a01b0319163317905560098101805460ff191660011790556004015490516001600160a01b0391909116913480156108fc02929091818181858888f19350505050158015610bef573d6000803e3d6000fd5b506040516323b872dd60e01b8152306004820152336024820152604481018290526001600160a01b038516906323b872dd90606401600060405180830381600087803b158015610c3e57600080fd5b505af1158015610c52573d6000803e3d6000fd5b50505050610c64600280546001019055565b6004546005546040516001600160a01b039092169181156108fc0291906000818181858888f19350505050158015610ca0573d6000803e3d6000fd5b50506001600055505050565b6060610cd6826040518060400160405280600681526020016539b2b63632b960d11b81525061107e565b80610d035750610d03826040518060400160405280600581526020016437bbb732b960d91b81525061107e565b610d1f5760405162461bcd60e51b81526004016104e49061146f565b6000610d2a60015490565b905060008060005b83811015610e3d576000600681610d4a84600161150a565b8152602080820192909252604090810160009081208251610160810184528154815260018201546001600160a01b0390811695820195909552600282015493810193909352600381015484166060840152600481015484166080840152600581015490931660a0830152600683015460c0830152600783015460e0830152600883015461010080840191909152600984015460ff8082161515610120860152919004161515610140830152919250610e0290896110d7565b90506001600160a01b0381163314610e1b575050610e2b565b610e2660018661150a565b945050505b80610e3581611550565b915050610d32565b5060008267ffffffffffffffff811115610e6757634e487b7160e01b600052604160045260246000fd5b604051908082528060200260200182016040528015610ea057816020015b610e8d61118d565b815260200190600190039081610e855790505b50905060005b84811015611074576000600681610ebe84600161150a565b8152602080820192909252604090810160009081208251610160810184528154815260018201546001600160a01b0390811695820195909552600282015493810193909352600381015484166060840152600481015484166080840152600581015490931660a0830152600683015460c0830152600783015460e0830152600883015461010080840191909152600984015460ff8082161515610120860152919004161515610140830152919250610f76908a6110d7565b90506001600160a01b0381163314610f8f575050611062565b60408051610160810182528354815260018401546001600160a01b039081166020830152600285015492820192909252600384015482166060820152600484015482166080820152600584015490911660a0820152600683015460c0820152600783015460e0820152600883015461010080830191909152600984015460ff8082161515610120850152919004161515610140820152845185908790811061104757634e487b7160e01b600052603260045260246000fd5b602090810291909101015261105d60018661150a565b945050505b8061106c81611550565b915050610ea6565b5095945050505050565b60008160405160200161109191906113f3565b60405160208183030381529060405280519060200120836040516020016110b891906113f3565b6040516020818303038152906040528051906020012014905092915050565b6000611101826040518060400160405280600681526020016539b2b63632b960d11b81525061107e565b8061112e575061112e826040518060400160405280600581526020016437bbb732b960d91b81525061107e565b61114a5760405162461bcd60e51b81526004016104e49061146f565b611172826040518060400160405280600681526020016539b2b63632b960d11b81525061107e565b611180578260a00151611186565b82608001515b9392505050565b6040805161016081018252600080825260208201819052918101829052606081018290526080810182905260a0810182905260c0810182905260e081018290526101008101829052610120810182905261014081019190915290565b6000602082840312156111fa578081fd5b815161118681611597565b60008060408385031215611217578081fd5b823561122281611597565b946020939093013593505050565b600080600080600060a08688031215611247578081fd5b853561125281611597565b97602087013597506040870135966060810135965060800135945092505050565b600060208284031215611284578081fd5b813567ffffffffffffffff8082111561129b578283fd5b818401915084601f8301126112ae578283fd5b8135818111156112c0576112c0611581565b604051601f8201601f19908116603f011681019083821181831017156112e8576112e8611581565b81604052828152876020848701011115611300578586fd5b826020860160208301379182016020019490945295945050505050565b60006020828403121561132e578081fd5b5035919050565b80518252602081015161135360208401826001600160a01b03169052565b5060408101516040830152606081015161137860608401826001600160a01b03169052565b50608081015161139360808401826001600160a01b03169052565b5060a08101516113ae60a08401826001600160a01b03169052565b5060c081015160c083015260e081015160e0830152610100808201518184015250610120808201516113e38285018215159052565b5050610140908101511515910152565b60008251815b8181101561141357602081860181015185830152016113f9565b818111156114215782828501525b509190910192915050565b6020808252825182820181905260009190848201906040850190845b818110156103845761145b838551611335565b928401926101609290920191600101611448565b60208082526025908201527f506172616d65746572206d757374206265202773656c6c657227206f7220276f604082015264776e65722760d81b606082015260800190565b6020808252601f908201527f5265656e7472616e637947756172643a207265656e7472616e742063616c6c00604082015260600190565b61018081016114fa8285611335565b8215156101608301529392505050565b6000821982111561151d5761151d61156b565b500190565b6000828210156115345761153461156b565b500390565b6000816115485761154861156b565b506000190190565b60006000198214156115645761156461156b565b5060010190565b634e487b7160e01b600052601160045260246000fd5b634e487b7160e01b600052604160045260246000fd5b6001600160a01b03811681146115ac57600080fd5b5056fea2646970667358221220d95605024e71b4bb52d3cbf03c1bd72ebbeb48c6417a633bd0270461f0b04d9c64736f6c63430008040033",
  "linkReferences": {},
  "deployedLinkReferences": {}
}